:100000000EC015C014C013C012C011C010C00FC064
:100010000EC00DC00CC00BC00AC009C008C011241E
:100020001FBECFE5D2E0DEBFCDBF02D011C1E8CF09
:1000300001D100C0FDD000C0FDD000C0F9D000C08B
:10004000F9D000C0F5D000C0F5D000C0F1D000C09C
:10005000F1D000C0EDD000C0EDD000C0E9D000C0AC
:10006000E9D000C0E5D000C0E5D000C0E1D000C0BC
:10007000E1D000C0DDD000C0DBD000C0DBD000C0CC
:10008000D7D000C0D7D000C0D3D000C0D3D000C0DC
:10009000CFD000C0CFD000C0CBD000C0CBD000C0EC
:1000A000C7D000C0C7D000C0C3D000C0C3D000C0FC
:1000B000BFD000C0BFD000C0BDD000C0B9D000C00C
:1000C000B9D000C0B5D000C0B3D000C0B3D000C01C
:1000D000AFD000C0AFD000C0ABD000C0ABD000C02C
:1000E000A7D000C0A7D000C0A3D000C0A3D000C03C
:1000F0009FD000C09FD000C09DD000C099D000C04C
:1001000097D000C097D000C095D000C091D000C05B
:100110008FD000C08FD000C08DD000C089D000C06B
:1001200087D000C087D000C083D000C083D000C07B
:1001300081D000C07DD000C07BD000C07BD000C08B
:1001400077D000C077D000C075D000C071D000C09B
:1001500071D000C06DD000C06DD000C069D000C0AB
:1001600069D000C065D000C065D000C061D000C0BB
:1001700061D000C05DD000C05DD000C059D000C0CB
:1001800059D000C055D000C053D000C053D000C0DB
:1001900051D000C04DD000C04BD000C04BD000C0EB
:1001A00049D000C045D000C043D000C043D000C0FB
:1001B0003FD000C03FD000C03BD000C03BD000C00B
:1001C00037D000C037D000C033D000C033D000C01B
:1001D00031D000C02DD000C02DD000C029D000C02B
:1001E00029D000C025D000C025D000C021D000C03B
:1001F0001FD000C01FD000C01BD000C01BD000C04B
:1002000017D000C017D000C013D000C013D000C05A
:100210000FD000C00FD000C00DD000C009D000C06A
:1002200007D000C007D000C003D000C003D000CF6B
:1002300008E102C000E000C007BB00C000C000C071
:1002400000C000C000C000C000C000C00000089591
:04025000F894FFCF50
:00000001FF
